:020000040000FA
:0400000081EF00F09C
:1000080040004000400040004000400040004000E8
:1000180040004000400040004000400040004000D8
:1000280040004000400040004000400040004000C8
:10003800CD00400040004000400040004000330137
:1000480040004000400040004000400040004000A8
:100058004000400040004000400040004000400098
:100068004000400040004000400040004000400088
:100078004000400040004000400040004000400078
:100088004000400040004000400040004000400068
:100098004000400040004000400040004000400058
:1000A8004000400040004000400040004000400048
:1000B8004000400040004000400040004000400038
:1000C8004000400040004000400040004000400028
:1000D8004000400040004000400040004000400018
:1000E8004000400040004000400040004000400008
:1000F8004000400040004000FF00D4EF01F0288E8F
:100108007FEC02F054EC02F01DEC02F075EC02F00A
:1001180009EC02F021EE13F111EE3FF10F0EDBC4F2
:10012800E3F4E806FCE243EC02F0F4EC01F03A28D0
:10013800D8A4A1EF00F0A3EF00F0A7EF00F0000EA5
:100148003A6E1BEC01F03550D8A4ADEF00F0AFEFDC
:1001580000F016EF01F0400ECE16000E356E365048
:10016800D8A4B9EF00F0BBEF00F0CDEF00F0010E1E
:10017800BF6E51380F0B0F0B3D6E3E6A3F0E3D248C
:10018800D96E050E3E20DA6EDF504F6E362A10EF1C
:1001980001F03604D8A4D3EF00F0D5EF00F0E5EF76
:1001A80000F0020EBF6E5250070B3D6E3E6A3F0EC6
:1001B8003D24D96E050E3E20DA6EDF504F6ECAEF31
:1001C80000F0020E3618D8A4ECEF00F0EEEF00F0C5
:1001D80000EF01F0040EBF6E5238E8461F0B0F0BFC
:1001E8003D6E3E6A3F0E3D24D96E050E3E20DA6E06
:1001F800DF504F6ECAEF00F0080EBF6E5244010B7D
:100208003D6E3E6A3F0E3D24D96E050E3E20DA6EE5
:10021800DF504F6E000E366ECE50400B4F24CE6E20
:100228009BEF00F0352A9BEF00F081EF00F0535070
:10023800F00B900AD8A423EF01F025EF01F085EF29
:1002480001F051500F0B050AD8A42DEF01F02FEF44
:1002580001F080EF01F0950E5118D8A436EF01F0A7
:1002680038EF01F07AEF01F05250070B050AD8A4D5
:1002780040EF01F042EF01F075EF01F0800E52649B
:1002880048EF01F04AEF01F066EF01F0950E5218C1
:10029800D8A451EF01F053EF01F057EF01F0080E29
:1002A800526E71EF01F08D0E5218D8A45EEF01F076
:1002B80060EF01F062EF01F0080E531A080E5226A3
:1002C80071EF01F04D0E5218D8A46DEF01F06FEFE9
:1002D80001F062EF01F0800E526EF80E521676EFC2
:1002E80001F0522A000E516E81EF01F05150F00BCF
:1002F800100F516E81EF01F0512A0F0E531687EF40
:1003080001F0100E532653A68CEF01F08EEF01F08A
:100318008FEF01F0C0760001878561004CF581F010
:10032800610044F581F0400EBE1A1200600000F230
:1003380038F53950D8A4A3EF01F0A5EF01F0C2EFCA
:1003480001F038C53BF5070E3B16D8A4AEEF01F017
:10035800B0EF01F0B5EF01F038C553F5392AD2EF07
:1003680001F03804D8A4BBEF01F0BDEF01F0D2EFE3
:1003780001F0610048F581F0D2EF01F03904D8A40A
:10038800C8EF01F0CAEF01F0CEEF01F038C551F522
:10039800B2EF01F038C552F5000E396EB190110078
:1003A800620EF66E040EF76E000EF86E01EE01F1A5
:1003B80010EE24F00900F5C4EEF4E550E150FAE13E
:1003C80001EE25F1160EEE6AE806FDE10401080EBD
:1003D8005D6F000E5E6F000E5F6F000183EF00F02F
:1003E8000001AF9DB387B2A7FCEF01F0FEEF01F06B
:1003F800F7EF01F0DE0E03011B6F900E1A6F1A9FC4
:100408001969FE0E186F1A8F12000001849F140ECE
:1004180002016A6F150E6B6F160E6C6F320E186F35
:10042800000E0001846F040E856F030E866F848FA3
:100438001200000E0401006F000EC66E000EBE6EA4
:10044800000E086F000EC76E000EBF6E000E106F14
:10045800700EC86E000EC06E1200063F4F5B6D66D0
:10046800077D6F7F7C775E39717900003F069B8F2F
:10047800A6ADBD07BFAFB7BCBC39B9B11005400EBA
:10048800BE6E930E526E950E516E500E536E2B0E1D
:10049800506E000E336E000E326E000E316E12007A
:1004A800000E2D6E000E2E6E000E2F6E000E306E9A
:1004B800000E296E000E2A6E000E2B6E000E2C6E9A
:0204C800120020
:1004CC00610060F33CF5B19E03011A9F1969FE0EA1
:1004DC00186F1A8F3A686100F0F4D8F41100D68ABC
:1004EC000301659FB19EB190A18EA180D68ED68C52
:0404FC0012001200D8
:020000040020DA
:10000000FF0FFF0FFF0FFF0FFF0FFF0FFF0FFF0F80
:10001000FF0FFF0FFF0FFF0FFF0FFF0FFF0FFF0F70
:020000040030CA
:0A0000008CFEFFFC9FFFFFFFFFFFD7
:00000001FF
