:020000040000FA
:0400000081EF00F09C
:10000800400128012801280140002801400028015A
:100018002801280128012801280128012801280190
:10002800280140004000400028012801280128013B
:100038002801280128013901FA002801280128018E
:100048002801280128012801400040002801280132
:100058002801280128014000280128012801280139
:100068002801280128012801280128012801280140
:100078002801280128012801400028012801280119
:100088002801280128012801280128012801280120
:1000980028012801280128014000280140004000CB
:1000A8002801280128012801280128012801280100
:1000B80028012801280128012801280128012801F0
:1000C80028012801280128012801280128012801E0
:1000D80028012801280128012801280128012801D0
:1000E800400028012801280140004000400040004D
:1000F8002801280128012801FF007AEF01F08083F8
:1001080086898C8F9295989B9EA2A5A7AAADB0B31D
:10011800B6B9BCBEC1C4C6C9CBCED0D3D5D7DADC3C
:10012800DEE0E2E4E6E8EAEBEDEEF0F1F3F4F5F612
:10013800F8F9FAFAFBFCFDFDFEFEFEFFFFFFFFFFEC
:10014800FFFFFEFEFEFDFDFCFBFAFAF9F8F6F5F4FA
:10015800F3F1F0EEEDEBEAE8E6E4E2E0DEDCDAD734
:10016800D5D3D0CECBC9C6C4C1BEBCB9B6B3B0AD69
:10017800AAA7A5A29E9B9895928F8C898683807C3E
:10018800797673706D6A6764615D5A5855524F4C41
:10019800494643413E3B393634312F2C2A28252302
:1001A800211F1D1B1917151412110F0E0C0B0A090C
:1001B8000706050504030202010101000000000012
:1001C80000000101010202030405050607090A0BE4
:1001D8000C0E0F1112141517191B1D1F212325288A
:1001E8002A2C2F313436393B3E414346494C4F5235
:1001F80055585A5D6164676A6D707376797C3950B9
:10020800491807E13A504A18D8A40DEF01F00FEF4A
:1002180001F077EF01F04C50D8B415EF01F017EF6B
:1002280001F03BEF01F04D50020D010EF324D96EA1
:10023800050EF420DA6E610078F339F5610074F385
:100248003AF54D50020D1D0EF324D96E050EF4201B
:10025800DA6E610078F358F5610074F359F5D890B7
:100268005834476E5934486E4D2A55EF01F00E0E3A
:100278004D6041EF01F043EF01F04CEF01F0000E4B
:100288003A6E320E396E7F0E486E476855EF01F0B0
:10029800000E4D6E070E3A6ED00E396E7F0E486E08
:1002A800476847C553F548C554F54C50D8A45FEF87
:1002B80001F062EF01F0010E63EF01F0000E556EE0
:1002C800ACEC01F04C50D8B46CEF01F06FEF01F0DA
:1002D800010E70EF01F0000E4C6E000E4A6E000E1B
:1002E800496E79EF01F0494A4A2A1200060EF66E65
:1002F800010EF76E000EF86E01EE00F210EE00F13E
:100308000900F5C4EEF4E550E150FAE1E250F8E1F5
:10031800AC0EF66E030EF76E000EF86E01EE01F1EC
:1003280010EE3AF00900F5C4EEF4E550E150FAE1B8
:1003380001EE3BF1170EEE6AE806FDE10401080E36
:100348005D6F000E5E6F000E5F6F00012BEF02F015
:1003580003011E91800E545CD8A0B5EF01F0B7EFF1
:1003680001F0BAEF01F07F0E546E5368531C566EBD
:10037800541C576E57504F6E56C54EF561003CF5EC
:100388001DF3610038F51CF350905550D8B4CFEFE9
:1003980001F0D1EF01F0D2EF01F05080B198A188BF
:1003A8001E81120000020002000200020002000288
:1003B8000004000200020002000200020002000421
:1003C8003C003C00280028002400240028002D00C0
:0E03D8002D002F002F00350035003C00E803FB
:1003E80061003CF51DF3610038F51CF3000E4B2449
:1003F800D96EDA6A060EDA22DF5000017D6F040E2C
:100408004B26B19850B00BEF02F00DEF02F010EF51
:1004180002F0A19803011E911100000E436E000E18
:10042800446E000E456E000E466E000E3F6E000EC6
:10043800406E000E416E000E426E7D0E0301236F6A
:10044800010E266FB196F00E246FA1861200518E10
:1004580082EC02F05DEC02F07BEC02F011EC02F0B1
:1004680041EC02F0519E03EC01F0BE9E68EC02F0F4
:10047800BE8E37EF02F081EF00F0C00EBE16900E70
:1004880003011A6F540E1B6F000E1F6F010E216FB0
:06049800310E1E6F120080
:1004A000610060F352F5010E3B26000E3C223D2216
:1004B0003E22610048F5D8F41100000E0401006FDF
:1004C000000EC66EA00E00017F6F000E7D6F120041
:1004D000518C51BC6EEF02F070EF02F069EF02F048
:0204E000120008
:1004E400B196519C010E4326000E44224522462219
:0A04F4001100D68AD68ED68C1200B5
:06050000AE901100120094
:020000040020DA
:10000000FF0FFF0FFF0FFF0FFF0FFF0FFF0FFF0F80
:10001000FF0FFF0FFF0FFF0FFF0FFF0FFF0FFF0F70
:020000040030CA
:0A0000008CFEFFFC9FFFFFFFFFFFD7
:00000001FF
