:020000040000FA
:0400000081EF00F09C
:1000080063014D014D014D0140004D0140004D017E
:100018004D014D014D014D014D014D014D014D0168
:100028004D014000400040004D014D014D014D0182
:1000380060014D014D015801FB004D014D014D017D
:100048004D014D014D014D01400040004D014D0154
:100058004D014D014D0140004D014D014D014D0136
:100068004D014D014D014D014D014D014D014D0118
:100078004D014D014D014D0140004D014D014D0116
:100088004D014D014D014D014D014D014D014D01F8
:100098004D014D014D014D0140004D014000400012
:1000A8004D014D014D014D014D014D014D014D01D8
:1000B8004D014D014D014D014D014D014D014D01C8
:1000C8004D014D014D014D014D014D014D014D01B8
:1000D8004D014D014D014D014D014D014D014D01A8
:1000E80040004D014D014D014000400040004000DE
:1000F8004D014D014D014D01FF009AEF01F04850AF
:10010800D8B489EF00F08BEF00F00FEF01F0455005
:10011800D8A491EF00F093EF00F097EF00F0000EF5
:10012800476E000E466E3150421807E132504318B0
:10013800D8A4A1EF00F0A3EF00F00BEF01F04650B8
:10014800D8B4A9EF00F0ABEF00F0CFEF00F04750C4
:10015800020D010EF324D96E050EF420DA6E61004B
:1001680078F331F5610074F332F54750020D190E3A
:10017800F324D96E050EF420DA6E610078F353F596
:10018800610074F354F5D8905334406E5434416E82
:10019800472AE9EF00F00C0E4760D5EF00F0D7EFE3
:1001A80000F0E0EF00F0000E326E320E316E7F0E7E
:1001B800416E4068E9EF00F0000E476E070E326EA0
:1001C800D00E316E7F0E416E406840C54EF541C578
:1001D8004FF54650D8A4F3EF00F0F6EF00F0010E0B
:1001E800F7EF00F0000E506ECCEC01F04650D8B49A
:1001F80000EF01F003EF01F0010E04EF01F0000E33
:10020800466E000E436E000E426E17EF01F0424A32
:10021800432A17EF01F0270E4F6E100E4E6E000E98
:10022800506ECCEC01F048C545F512004D4E5052C9
:100238005456585A5B5D5F61636466686A6C6D6F9B
:100248007172747577797A7C7D7E808183848586E6
:1002580088898A8B8C8D8E8F9091929293949595A4
:100268009696979798989898999999999999999904
:10027800999898989897979696959594939292911D
:10028800908F8E8D8C8B8A89888685848381807EE9
:100298007D7C7A7977757472716F6D6C6A68666443
:1002A80063615F5D5B5A58565452504E4D4B4947F7
:1002B8004543413F3E3C3A38363533312F2D2C2AC1
:1002C8002827252422201F1D1C1B19181615141356
:1002D80011100F0E0D0C0B0A090807070605040478
:1002E80003030202010101010000000000000000F8
:1002F80000010101010202030304040506070708BF
:10030800090A0B0C0D0E0F10111314151618191BD2
:100318001C1D1F2022242527282A2C2D2F31333558
:1003280036383A3C3E3F41434547494B340EF66E1A
:10033800020EF76E000EF86E01EE00F210EE00F1FC
:100348000900F5C4EEF4E550E150FAE1E250F8E1B5
:100358005A0EF66E040EF76E000EF86E01EE01F1FD
:1003680010EE33F00900F5C4EEF4E550E150FAE17F
:1003780001EE34F1190EEE6AE806FDE10401080EFB
:100388005D6F000E5E6F000E5F6F000160EF02F0A0
:1003980003011E91800E4F5CD8A0D5EF01F0D7EF76
:1003A80001F0DAEF01F07F0E4F6E4E684E1C516E71
:1003B8004F1C526E52504A6E51C549F5610028F5DE
:1003C8001DF3610024F51CF34B905050D8B4EFEFA7
:1003D80001F0F1EF01F0F2EF01F04B80B198A18844
:1003E8001E811200610028F51DF3610024F51CF33D
:1003F800000E4424D96EDA6A060EDA22DF500001B4
:100408007D6F040E4426B1984BB00DEF02F00FEF4C
:1004180002F012EF02F0A19803011E911100000EE4
:100428003C6E000E3D6E000E3E6E000E3F6E000EDE
:10043800386E000E396E000E3A6E000E3B6E7D0E61
:100448000301236F010E266FB196F00E246FA1866B
:100458001200800080000001000180008000800000
:1004680000010001800080008000350035001B007D
:10047800240000002600000028002D0035002D0073
:050488002800E8030C50
:10048E00000E0401006F000EC66E000EBE6E000E52
:10049E00086F000EC76E000EBF6E000E106FF00ECE
:1004AE00C86E000EC06EA00E00017F6F000E7D6F35
:1004BE0012004C8EC8EC02F047EC02F078EC02F021
:1004CE00B9EC02F013EC02F08CEC02F04C9E83ECD3
:1004DE0000F0BE9EA7EC02F0BE8E6EEF02F081EF32
:1004EE0000F00001849F140E02016A6F150E6B6FEF
:1004FE00160E6C6F320E186F000E0001846F040E14
:10050E00856F010E866F848F1200C00EBE16900E80
:10051E0003011A6F540E1B6F000E1F6F010E216F19
:10052E00310E1E6F1200610060F34DF5010E342680
:10053E00000E352236223722610034F5D8F4110030
:10054E004C8C4CBCADEF02F0AFEF02F0A8EF02F016
:10055E001200B1964C9C010E3C26000E3D223E220E
:10056E003F221100D68AD68ED68CB190A180120071
:0A058000B190600000F248F5110090
:06058C00AE901100120008
:020000040020DA
:10000000FF0FFF0FFF0FFF0FFF0FFF0FFF0FFF0F80
:10001000FF0FFF0FFF0FFF0FFF0FFF0FFF0FFF0F70
:020000040030CA
:0A0000008CFEFFFC9FFFFFFFFFFFD7
:00000001FF
